{
  "address": "0x004Fa7e32C47a754E5ae5687948EaAa5a06f9aE1",
  "abi": [
    {
      "inputs": [],
      "stateMutability": "nonpayable",
      "type": "constructor"
    },
    {
      "anonymous": false,
      "inputs": [
        {
          "indexed": false,
          "internalType": "uint256",
          "name": "finalHomeoscore",
          "type": "uint256"
        }
      ],
      "name": "Death",
      "type": "event"
    },
    {
      "anonymous": false,
      "inputs": [
        {
          "indexed": true,
          "internalType": "address",
          "name": "from",
          "type": "address"
        },
        {
          "indexed": false,
          "internalType": "uint256",
          "name": "value",
          "type": "uint256"
        },
        {
          "indexed": false,
          "internalType": "uint256",
          "name": "newHomeoscore",
          "type": "uint256"
        }
      ],
      "name": "Fed",
      "type": "event"
    },
    {
      "anonymous": false,
      "inputs": [
        {
          "indexed": false,
          "internalType": "uint256",
          "name": "marketDropPercentage",
          "type": "uint256"
        },
        {
          "indexed": false,
          "internalType": "uint256",
          "name": "decreaseAmount",
          "type": "uint256"
        },
        {
          "indexed": false,
          "internalType": "uint256",
          "name": "newHomeoscore",
          "type": "uint256"
        }
      ],
      "name": "MarketEvent",
      "type": "event"
    },
    {
      "anonymous": false,
      "inputs": [
        {
          "indexed": false,
          "internalType": "uint256",
          "name": "newMarketSensitivity",
          "type": "uint256"
        },
        {
          "indexed": false,
          "internalType": "uint256",
          "name": "newFeedSensitivity",
          "type": "uint256"
        }
      ],
      "name": "TraitsUpdated",
      "type": "event"
    },
    {
      "inputs": [],
      "name": "feed",
      "outputs": [],
      "stateMutability": "payable",
      "type": "function"
    },
    {
      "inputs": [],
      "name": "feedSensitivity",
      "outputs": [
        {
          "internalType": "uint256",
          "name": "",
          "type": "uint256"
        }
      ],
      "stateMutability": "view",
      "type": "function"
    },
    {
      "inputs": [],
      "name": "homeoscore",
      "outputs": [
        {
          "internalType": "uint256",
          "name": "",
          "type": "uint256"
        }
      ],
      "stateMutability": "view",
      "type": "function"
    },
    {
      "inputs": [],
      "name": "isAlive",
      "outputs": [
        {
          "internalType": "bool",
          "name": "",
          "type": "bool"
        }
      ],
      "stateMutability": "view",
      "type": "function"
    },
    {
      "inputs": [],
      "name": "marketSensitivity",
      "outputs": [
        {
          "internalType": "uint256",
          "name": "",
          "type": "uint256"
        }
      ],
      "stateMutability": "view",
      "type": "function"
    },
    {
      "inputs": [],
      "name": "owner",
      "outputs": [
        {
          "internalType": "address",
          "name": "",
          "type": "address"
        }
      ],
      "stateMutability": "view",
      "type": "function"
    },
    {
      "inputs": [
        {
          "internalType": "uint256",
          "name": "marketDropPercentage",
          "type": "uint256"
        }
      ],
      "name": "updateMarketEvent",
      "outputs": [],
      "stateMutability": "nonpayable",
      "type": "function"
    },
    {
      "inputs": [
        {
          "internalType": "uint256",
          "name": "newMarketSensitivity",
          "type": "uint256"
        },
        {
          "internalType": "uint256",
          "name": "newFeedSensitivity",
          "type": "uint256"
        }
      ],
      "name": "updateTraits",
      "outputs": [],
      "stateMutability": "nonpayable",
      "type": "function"
    },
    {
      "inputs": [],
      "name": "withdraw",
      "outputs": [],
      "stateMutability": "nonpayable",
      "type": "function"
    }
  ],
  "transactionHash": "0x7905551e1d88c6e8cdaa5fd149eb2653952afdf92a0d121d18f4723f58b4c69d",
  "args": [],
  "numDeployments": 1,
  "solcInputHash": "6925654e9ded3719d2619b78371ad5b1",
  "bytecode": "0x608060405234801561001057600080fd5b506003805460326000556005600181815560029190915560ff196101003302166001600160a81b03199092169190911717905561068b806100526000396000f3fe6080604052600436106100865760003560e01c80633ddfdd4e116100595780633ddfdd4e146100f35780634136aa35146101095780638235d3ee146101335780638da5cb5b14610153578063e735c5541461019057600080fd5b8063241ae1d71461008b57806333938136146100b457806337a7b7d8146100d65780633ccfd60b146100de575b600080fd5b34801561009757600080fd5b506100a160005481565b6040519081526020015b60405180910390f35b3480156100c057600080fd5b506100d46100cf36600461055a565b6101a6565b005b6100d46102a3565b3480156100ea57600080fd5b506100d46103a7565b3480156100ff57600080fd5b506100a160025481565b34801561011557600080fd5b506003546101239060ff1681565b60405190151581526020016100ab565b34801561013f57600080fd5b506100d461014e366004610573565b610469565b34801561015f57600080fd5b506003546101789061010090046001600160a01b031681565b6040516001600160a01b0390911681526020016100ab565b34801561019c57600080fd5b506100a160015481565b60035461010090046001600160a01b031633146101de5760405162461bcd60e51b81526004016101d590610595565b60405180910390fd5b60035460ff166102005760405162461bcd60e51b81526004016101d5906105bd565b6000606460015483606461021491906105f0565b61021e91906105f0565b610228919061060d565b905060005481111561023d5760008055610254565b8060008082825461024e919061062f565b90915550505b600054604080518481526020810184905280820192909252517f75846781abd415e033297d85c05d9701e5a7fd106a42e0bcc7a52de1c63f6fe59181900360600190a161029f610501565b5050565b60035460ff166102c55760405162461bcd60e51b81526004016101d5906105bd565b6000341161030d5760405162461bcd60e51b815260206004820152601560248201527414d95b99081cdbdb5948115512081d1bc819995959605a1b60448201526064016101d5565b600066038d7ea4c680006002543461032591906105f0565b61032f919061060d565b9050806000808282546103429190610642565b9091555050600054606410156103585760646000555b60005460405133917f561cec2b400d5771cc9444b53f9a58237109038af047dbaf284406b5632c4f7e9161039491348252602082015260400190565b60405180910390a26103a4610501565b50565b60035461010090046001600160a01b031633146103d65760405162461bcd60e51b81526004016101d590610595565b60035460ff16156104295760405162461bcd60e51b815260206004820152601760248201527f4f7267616e69736d206973207374696c6c20616c69766500000000000000000060448201526064016101d5565b6003546040516001600160a01b0361010090920491909116904780156108fc02916000818181858888f193505050501580156103a4573d6000803e3d6000fd5b60035461010090046001600160a01b031633146104985760405162461bcd60e51b81526004016101d590610595565b60035460ff166104ba5760405162461bcd60e51b81526004016101d5906105bd565b6001829055600281905560408051838152602081018390527fbdf6ce523f73d5faafdedf9cea97243d955d65a0abe0f6789b003db8a138ed04910160405180910390a15050565b600054158061051257506000546064145b15610558576003805460ff191690556000546040519081527fa9fe216aa4cb184f064a3f32d75e5d26ad2e159e070218c325ae228c82fc88309060200160405180910390a15b565b60006020828403121561056c57600080fd5b5035919050565b6000806040838503121561058657600080fd5b50508035926020909101359150565b6020808252600e908201526d139bdd08185d5d1a1bdc9a5e995960921b604082015260600190565b60208082526003908201526205249560ec1b604082015260600190565b634e487b7160e01b600052601160045260246000fd5b8082028115828204841417610607576106076105da565b92915050565b60008261062a57634e487b7160e01b600052601260045260246000fd5b500490565b81810381811115610607576106076105da565b80820180821115610607576106076105da56fea264697066735822122022dbc3d7fcad57ba3e1c720e126fdb9b03c55bd6fbf8c2641dccbc0e8ca4d95b64736f6c63430008140033",
  "devdoc": {
    "kind": "dev",
    "methods": {},
    "version": 1
  },
  "userdoc": {
    "kind": "user",
    "methods": {},
    "version": 1
  },
  "storageLayout": {
    "storage": [
      {
        "astId": 3,
        "contract": "contracts/Organism.sol:Organism",
        "label": "homeoscore",
        "offset": 0,
        "slot": "0",
        "type": "t_uint256"
      },
      {
        "astId": 5,
        "contract": "contracts/Organism.sol:Organism",
        "label": "marketSensitivity",
        "offset": 0,
        "slot": "1",
        "type": "t_uint256"
      },
      {
        "astId": 7,
        "contract": "contracts/Organism.sol:Organism",
        "label": "feedSensitivity",
        "offset": 0,
        "slot": "2",
        "type": "t_uint256"
      },
      {
        "astId": 9,
        "contract": "contracts/Organism.sol:Organism",
        "label": "isAlive",
        "offset": 0,
        "slot": "3",
        "type": "t_bool"
      },
      {
        "astId": 11,
        "contract": "contracts/Organism.sol:Organism",
        "label": "owner",
        "offset": 1,
        "slot": "3",
        "type": "t_address"
      }
    ],
    "types": {
      "t_address": {
        "encoding": "inplace",
        "label": "address",
        "numberOfBytes": "20"
      },
      "t_bool": {
        "encoding": "inplace",
        "label": "bool",
        "numberOfBytes": "1"
      },
      "t_uint256": {
        "encoding": "inplace",
        "label": "uint256",
        "numberOfBytes": "32"
      }
    }
  }
}